:020000040800F2
:1000000038070020AD030008B7010008B901000857
:10001000BD010008BF010008C10100080000000088
:10002000000000000000000000000000C301000804
:10003000C501000800000000C7010008C901000850
:10004000C7030008C7030008C7030008C703000868
:10005000C7030008C7030008C7030008C703000858
:10006000C7030008C7030008C7030008C703000848
:10007000C7030008C7030008C7030008C703000838
:10008000C7030008C7030008C7030008C703000828
:10009000C7030008C7030008C7030008C703000818
:1000A000C7030008C7030008C7030008C703000808
:1000B000C7030008C7030008C7030008C7030008F8
:1000C000C7030008C7030008C7030008C7030008E8
:1000D000C7030008C7030008C70300088B14000803
:1000E000C7030008C7030008C703000800F002F8B0
:1000F00000F050F80AA090E8000C82448344AAF172
:100100000107DA4501D100F045F8AFF2090EBAE86F
:100110000F0013F0010F18BFFB1A43F0010318473B
:10012000AC340000CC340000103A24BF78C878C149
:10013000FAD8520724BF30C830C144BF04680C60ED
:10014000704700000023002400250026103A28BF35
:1001500078C1FBD8520728BF30C148BF0B60704739
:10016000662903F0C981642901F02486782901F009
:100170005D86732902F0E381002070471FB502F00D
:10018000F5F904000020002102F032FFE0601FBDFD
:1001900010B510BD02F0EAFA1146FFF7EFFF01F0CB
:1001A000D7F902F008FB03B4FFF7F2FF03BC01F03C
:1001B00005F9000030BF704700BFFEE77047704789
:1001C0007047704770477047704700000CB50020BB
:1001D000019000906C48006840F480306A490860E3
:1001E00000BF6948006800F4003000900198401C8E
:1001F0000190009818B90198B0F5A06FF1D162484C
:10020000006800F4003010B10120009001E00020EF
:1002100000900098012843D15C48006840F010002D
:100220005A4908600846006820F003000860084644
:10023000006840F002000860534840685249486036
:100240000846406848600846406840F4806048605E
:100250000846406820F47C1048600846406840F436
:10026000E81048600846006840F08070086000BFF1
:100270004548006800F000700028F9D04248406806
:1002800020F00300404948600846406840F0020002
:10029000486000BF3C48406800F00C000828F9D1D5
:1002A0000CBD10B5FFF792FF10BD10B536480068C1
:1002B00040F001003449086008464068344908406D
:1002C0003149486008460068324908402E490860B4
:1002D0000846006820F4802008600846406820F442
:1002E000FE0048604FF41F008860FFF7DAFF4FF010
:1002F00000602949086010BD10B5002100200022CF
:10030000214B5B6803F00C0121B1042906D00829B8
:1003100028D107E0214B224C236027E01F4B204CC3
:10032000236023E0184B5B6803F47010164B5B6886
:1003300003F48032022303EB904022B9194B43436C
:10034000174C23600DE0104B5B6803F4003323B1BE
:10035000144B4343124C236003E0104B4343104CB7
:10036000236003E00D4B0E4C236000BF00BF064B23
:100370005B68C3F303130C4CE15C094B1B68CB4077
:10038000074C236010BD0000001002400020024016
:100390000000FFF8FFFFF6FE08ED00E000127A0013
:1003A0000000002000093D000400002009488047AB
:1003B00009480047FEE7FEE7FEE7FEE7FEE7FEE747
:1003C000FEE7FEE7FEE7FEE704480549054A064B5F
:1003D00070470000AB020008ED0000083801002063
:1003E000380700203803002038030020314901433A
:1003F000314A1160704770B5002100230F22C47884
:1004000004B32D4C246804F4E064C4F5E064210ACC
:10041000C1F10403CA40447804FA03F1847814401B
:1004200021430901254C0678A155047804F01F05E5
:100430000124AC4005786D11AD0005F1E025C5F84B
:10044000004109E0047804F01F050124AC401C4D74
:100450000678761145F8264070BD1A4A0A400243D4
:10046000154B1B1F1A60704739B1134A121D1268D1
:100470000243114B1B1D1A6006E00F4A121D126841
:1004800082430D4B1B1D1A607047042808D14FF0A2
:10049000E021096941F004014FF0E022116107E019
:1004A0004FF0E021096921F004014FF0E0221161D1
:1004B000704700000000FA050CED00E000E400E0E9
:1004C00080E100E080FFFF1F10B50446CC48844265
:1004D00008D10121042000F02DFB0021042000F0B0
:1004E00029FB46E0C748844208D10121082000F0DA
:1004F00021FB0021082000F01DFB3AE0C2488442A5
:1005000008D10121102000F015FB0021102000F07F
:1005100011FB2EE0BD48844208D10121202000F0CB
:1005200009FB0021202000F005FB22E0B8488442AE
:1005300008D10121402000F0FDFA0021402000F008
:10054000F9FA16E0B348844208D10121802000F076
:10055000F1FA0021802000F0EDFA0AE0AE48844272
:1005600007D10121801500F0E5FA0021A01500F067
:10057000E1FA10BD10B50121084600F0DBFA0021B8
:10058000012000F0D7FA10BD2DE9F0410246002508
:100590000026002000230024002791F803C00CF05F
:1005A0000F0591F803C00CF0100CBCF1000F03D044
:1005B00091F802C04CEA050591F800C0BCF1000FAB
:1005C00031D0146800202BE04FF0010C0CFA00F33E
:1005D000B1F800C00CEA03069E4220D183004FF020
:1005E0000F0C0CFA03F7BC4305FA03FC4CEA0404B5
:1005F00091F803C0BCF1280F06D14FF0010C0CFAA2
:1006000000FCC2F814C00AE091F803C0BCF1480F26
:1006100005D14FF0010C0CFA00FCC2F810C0401CD0
:100620000828D1D31460B1F800C0BCF1FF0F34DD4D
:10063000546800202EE000F1080C4FF0010808FA81
:100640000CF3B1F800C00CEA03069E4221D18300EE
:100650004FF00F0C0CFA03F7BC4305FA03FC4CEA0D
:10066000040491F803C0BCF1280F05D100F1080C77
:1006700008FA0CF8C2F8148091F803C0BCF1480FD6
:1006800007D100F1080C4FF0010808FA0CF8C2F885
:100690001080401C0828CED35460BDE8F0814FF68E
:1006A000FF710180022181700421C17070470246F0
:1006B000002093680B400BB1012000E00020704740
:1006C0000146886880B2704702460020D3680B401C
:1006D0000BB1012000E0002070470146C86880B2DD
:1006E000704701617047416170470AB1016100E0E4
:1006F00041617047C16070474FF480320A438261A4
:100700008161826182698269704702460020434BA1
:1007100018684FF68073184040EA021008433F4BB8
:10072000186070473E49C8617047F0B50A4600231B
:1007300000240021002500F00046B6F1004F02D150
:10074000364EF16901E0354E7168C0F3034583B25E
:1007500000F44016B6F5401F08D121F070612F4E0D
:10076000766826F070662D4F7E6012E000F48016E9
:10077000B6F5801F06D1032606FA05F4A14341F021
:10078000706106E0460D360103FA06F6B14341F00A
:10079000706122B1460D360103FA06F6314300F0CE
:1007A0000046B6F1004F02D11C4EF16101E01B4E34
:1007B0007160F0BD30B500228B071C0F0F2303FAC8
:1007C00004F2164B08338C1053F824309343134C27
:1007D00008348D1044F8253023468C1053F824300B
:1007E0008C07240F00FA04F423430C4C08348D10BA
:1007F00044F8253030BD0A49DC31086070470000FC
:1008000000080140000C01400010014000140140AC
:1008100000180140001C0140002001400000014080
:1008200000002042DF48006840F00100DD49086018
:1008300008464068DC490840DA49486008460068D4
:10084000DA490840D74908600846006820F480204B
:1008500008600846406820F4FE0048604FF41F001E
:1008600088607047CF49096821F48031CD4A116012
:100870001146096821F480211160B0F5803F03D052
:10088000B0F5802F0ED106E0C649096841F48031E9
:10089000C44A116007E0C349096841F4A021C14A74
:1008A000116000E000BF00BF704710B50146002294
:1008B000002300204A11012A02D1BA4C236806E025
:1008C000022A02D1B74C236A01E0B64C636A01F0F8
:1008D0001F02012494401C400CB1012000E00020C4
:1008E00010BD38B5002000900024002500BF312045
:1008F000FFF7DBFF05460098401C00900098B0F51C
:10090000A06F01D0002DF2D03120FFF7CEFF08B14B
:10091000012400E00024204638BD01460020A14A01
:10092000106820F0F80040EAC10010607047A0494C
:1009300008607047024600209A4B586820F47C10EB
:1009400042EA01031843974B58607047984908667C
:10095000704701460020934A506820F00300084386
:10096000506070478F48406800F00C0070470146A7
:1009700000208C4A506820F0F00008435060704717
:1009800001460020874A506820F4E0600843506028
:10099000704701460020834A506820F4605040EAC6
:1009A000C1005060704729B17E4A527A02437D4BA4
:1009B0005A7204E07B4A527A82437A4B5A727047E9
:1009C0007B49D8310860704701460020754A50685D
:1009D00020F440400843506070470021714A2032A3
:1009E0001170704A82F82010012802D004280AD120
:1009F00004E001216B4A2032117005E00521694AAB
:100A00002032117000E000BF00BF704769490860E4
:100A100070476449096A0143624A11627047654937
:100A200044390860704730B50021002200240023BB
:100A30005C4D6D6805F00C0121B1042905D0082931
:100A400023D105E05C4D056022E05B4D05601FE0B1
:100A5000544D6D6805F47012524D6D6805F4803484
:100A6000022505EB92421CB9544D554305600BE03D
:100A70004C4D6D6805F400351DB1504D5543056072
:100A800002E04D4D5543056002E04B4D056000BF4F
:100A900000BF444D6D6805F0F0010909484D6B5CDD
:100AA0000568DD4045603F4D6D6805F4E061090A69
:100AB000434D6B5C4568DD4085603A4D6D6805F4DB
:100AC0006051C90A3E4D6B5C4568DD40C560354DDF
:100AD0006D6805F44041890B3A4D6B5CC568B5FB08
:100AE000F3F5056130BD29B12E4A526902432D4B01
:100AF0005A6104E02B4A526982432A4B5A6170477B
:100B000029B1284A92690243264B9A6104E0254A9A
:100B100092698243234B9A61704729B1214AD26975
:100B20000243204BDA6104E01E4AD26982431D4B26
:100B3000DA61704729B11B4AD2680243194BDA6067
:100B400004E0184AD2688243164BDA60704729B134
:100B5000144A12690243134B1A6104E0114A1269E4
:100B60008243104B1A617047124940390860704740
:100B70000F49C86470470B49C87170470948406AFB
:100B800040F0807007494862704701460020054ADE
:100B900092680A400AB1012000E000207047014934
:100BA00088727047001002400000FFF8FFFFF6FE59
:100BB000000042428004424200127A0000093D00D7
:100BC000140000202400002010B50446FB48844295
:100BD00009D101218803FFF7ADFF00214FF48040C8
:100BE000FFF7A8FF32E0F648844209D1012148040A
:100BF000FFF7ADFF00214FF40030FFF7A8FF25E01D
:100C0000F048844209D101218804FFF7A0FF0021A8
:100C10004FF48020FFF79BFF18E0EB48844209D196
:100C20000121C804FFF793FF00214FF40020FFF7D4
:100C30008EFF0BE0E548844208D101210805FFF74B
:100C400086FF00214FF48010FFF781FF10BD2DE9D2
:100C5000F04786B005460E460024A24600BFA146D6
:100C60000027B08900B100BF2F462C8A4CF6FF70D8
:100C70000440F08804432C82AC894EF6F310044003
:100C8000B08831890843718908430443AC81AC8A38
:100C90004FF6FF400440B0890443AC8201A8FFF73F
:100CA000C2FEC648874202D1DDF810A001E0DDF89F
:100CB0000CA0A88900F4004040B10AEBCA0000EB88
:100CC0000A1031684900B0FBF1F807E00AEBCA00EE
:100CD00000EB0A1031688900B0FBF1F86420B8FB22
:100CE000F0F004012009642101FB1089A88900F4B7
:100CF000004040B1322000EBC900B0FBF1F000F041
:100D00000700044308E0322000EB09106421B0FB27
:100D1000F1F000F00F0004432C8106B0BDE8F0872D
:100D20004FF41651016000218180C18001810C21A6
:100D3000418100218181704710B502460020108A50
:100D40004FF2FF0318400B884C8823438C882343C1
:100D5000CC8823431843108210BD002101804180BC
:100D60008180C180704721B1828942F40052828122
:100D700004E082894DF6FF731A4082817047F0B516
:100D80000346002400260025002040F66A17B942D9
:100D900000D100BF1846C1F3421401F01F0601271D
:100DA00007FA06F5012C01D10C3004E0022C01D128
:100DB000103000E014301AB107682F43076002E0DA
:100DC0000768AF430760F0BD1AB1838A0B43838283
:100DD00002E0838A8B4383827047028A4FF6F07366
:100DE0001A400282028A0A430282704782894FF2C5
:100DF000FF731A40828182890A438281704721B140
:100E0000828942F00202828104E082894FF6FD73FA
:100E10001A4082817047028A4FF6DF731A400282BD
:100E2000028A0A430282704721B1028A42F4804258
:100E3000028204E0028A4BF6FF731A400282704776
:100E4000C1F308028280704701468888C0F3080019
:100E50007047818941F0010181817047028BD2B2D4
:100E60000283028B42EA012202837047028B02F462
:100E70007F420283028B0A430283704721B1828A38
:100E800042F02002828204E0828A4FF6DF731A4029
:100E90008282704721B1828A42F01002828204E08D
:100EA000828A4FF6EF731A408282704721B1828A9C
:100EB00042F00802828204E0828A4FF6F7731A40F9
:100EC0008282704721B1828942F40042828103E02C
:100ED0008289C2F30E028281704721B1828A42F474
:100EE0000062828204E0828A4FF2FF731A4082829B
:100EF0007047828A4FF6FB731A408282828A0A43C5
:100F00008282704721B1828A42F00202828204E02A
:100F1000828A4FF6FD731A40828270470246002093
:100F2000B1F5007F00D100BF13880B400BB1012049
:100F300000E00020704701F40072B2F5007F00D19C
:100F400000BFCA430280704770B5024600240023E8
:100F50000025002040F66A16B14200D100BFC1F35F
:100F6000421501F01F03012606FA03F3012D02D1F9
:100F70009689334006E0022D02D1168A334001E003
:100F8000968A33400C12012606FA04F4168834407F
:100F900013B10CB1012000E0002070BD10B500229B
:100FA000002340F66A14A14200D100BF0A120124B6
:100FB0009440A3B2DC43048010BD0000003801401F
:100FC0000044004000480040004C004000500040F9
:100FD0004FF0E021096921F004014FF0E022116196
:100FE000C21700EB5272C2F3C7022B4B1A7019469C
:100FF000097801EB4102C2EBC1114FF6FF7202EA20
:10100000C101264A118070470146234A12784A439B
:101010004FF0E0235A6100229A611A46126942F0A9
:1010200001021A6100BF4FF0E022106900F00102D6
:101030001AB100F48032002AF5D04FF0E022126994
:1010400022F001024FF0E0231A6100229A617047FA
:101050000146124A12884A434FF0E0235A610022A7
:101060009A611A46126942F001021A6100BF4FF0FC
:10107000E022106900F001021AB100F48032002A67
:10108000F5D04FF0E022126922F001024FF0E02388
:101090001A6100229A617047280000202A0000206F
:1010A000B94A11880A131303C1F3032203EB022385
:1010B000C1F3031203EB021201F00F031A4491B2C1
:1010C0004D22027043224270552282704322C27028
:1010D00061220271702242713A2282714FF47A7257
:1010E00091FBF2F232B14FF47A7291FBF2F23032AC
:1010F000C27101E02022C2714FF47A7291FBF2F3C7
:1011000002FB1312642392FBF3F230320272642268
:1011100091FBF2F302FB13120A2392FBF3F230323B
:1011200042720A2291FBF2F302FB131230328272F6
:101130004B22C27262220273704770B50446934814
:1011400005682A4692A1204600F0D0FD70BD934A62
:101150000A4002438D4B08331A60704710B50446AD
:101160002046FFF743F910BDF8B504460D46174673
:101170001E463046FFF7F2FF8DF800708DF80140F3
:101180008DF8025001208DF803006846FFF733F90F
:10119000F8BD00B5002082490861C860142048618C
:1011A00000208861C8610846006840F001000860BE
:1011B000084640687B49084079494860084600680D
:1011C00079490840764908600846006820F4802084
:1011D00008600846406820F4FE00486000208860EF
:1011E00000214FF00060FFF7B2FF00BD10B5674867
:1011F0001030006840F0040064491031086068480D
:10120000C06940F080506649C8616848406840F451
:101210008070664948600846006840F00400086035
:101220000846006840F002000860FEF7C3FF10BDEA
:101230005F4856490C31086070475949896941F047
:101240000101574A91615B49496821F0E061594ABF
:1012500051601146496841EA00615160704730B5FC
:1012600004460025FFF795FF4D48006840F48030A4
:101270004B49086000BF4A480068400C0028FAD07B
:101280004FF4806046494860A01EC4B208464068DA
:1012900040EA844048600846406840F48030486036
:1012A0004548006840F03200434908603C48006807
:1012B00040F080703A49086000BF39480068400E2D
:1012C0000028FAD03648406840F0020034494860AF
:1012D00005E033484068C0F3870505F00305022D9B
:1012E000F7D130BD01460A2091FBF0F200FB12104D
:1012F0000A2291FBF2F240EA0210C0B270470146A6
:1013000001F00F000A1102EB820200EB4200C0B2B2
:10131000704701464FF47A7091FBF0F000034FF4F0
:101320007A7291FBF2F302FB1312642392FBF3F245
:1013300040EA02201A4691FBF2F302FB13120A2341
:1013400092FBF3F240EA02101A4691FBF2F302FB21
:101350001312104380B27047014608134FF47A729B
:101360005043C1F3032202EBC20303EB021200EB72
:101370008200C1F3031202EB820200EB420001F093
:101380000F02104480B27047E0F7FF1F00ED00E04D
:101390004350552049443A253038580080FFFF1FFC
:1013A000001002400000FFF8FFFFF6FE0070004052
:1013B0000400FA050000014000200240014600BF81
:1013C000704700BF5E4A128802F04002002AF9D03E
:1013D000C2B25B4B1B1D1A80704710B586B0044625
:1013E00057480C30008840F4807055490C31088013
:1013F0000846008840F0200008804FF4A0632722B0
:1014000003210846FFF7B0FE01218804FFF785FBA2
:1014100001210820FFF774FB4948FFF7D5FB4FF483
:101420008060ADF8140003208DF8160018208DF8A8
:10143000170005A94348FFF7A7F84FF40060ADF87F
:10144000140004208DF8170005A93E48FFF79CF80A
:1014500001940020ADF80800ADF80A00ADF80C00CA
:10146000ADF810000C20ADF80E0001A93448FFF7CC
:10147000EEFB012240F225513148FFF780FC0121AB
:101480002F48FFF770FC06B010BD10B540F2255193
:101490002B48FFF759FD002850D02948FFF7D4FC0E
:1014A000C4B22948008800F40040002846D12648EC
:1014B000008800F4804038B30A2C1ED00D20224949
:1014C0000988C1F30D01214A50541F480088401C6F
:1014D0001D49088008460088C0F30D0011460C54D1
:1014E00019480088401C18490880084600884BF6B7
:1014F000FF7108401449088020E01348008840F438
:1015000000401149088019E00D2C06D10E480088D2
:1015100040F480400C49088010E00B480088C0F37C
:101520000D000A490C5408480088401C06490880F0
:10153000084600883E2801DD0020088010BD00001C
:1015400000480040000C01403000002098000020BE
:1015500096B04FF0000A20210EA800F02FFD4FF4A6
:10156000A060FFF7FBFD4820FFF732FD4FF4E130AC
:10157000FFF733FF6420FFF76BFD002000F003FB53
:10158000002000F0A8F9002000F05CFA00F082F9D9
:1015900070E04FF0000B1CE0584600F053FA00F0EA
:1015A0008BF9BBF1000F06D10DF126010DF13600CC
:1015B00000F006FA09E0ABF1010206AB03EB4201D1
:1015C0000AAB03EB420000F0FBF90BF1010000F065
:1015D000FF0BBBF1080FDFDB4FF0000A40E00AA968
:1015E00031F91A0001F072FE80460022224B01F010
:1015F00085FE0022214BCDE9020101F00FFD002202
:101600001F4BCDE9040101F079FE06460F4606A9FD
:1016100031F91A0001F05AFE80460022164B01F003
:101620006DFE0022154BCDE9020101F0F7FC00220E
:10163000134BCDE9040101F061FE04460D4652460C
:1016400010A10EA88DE8C004CDE9044500F04EFBC2
:101650000EA912A000F03EFB0AF1010000F0FF0A03
:10166000BAF1080FBBDB0FA000F034FB4FF47A7027
:10167000FFF7EEFC8DE7000000003440E0FFEF4094
:1016800000408F404125643A252E31666D76204218
:1016900025643A252E31666D7600000025730D0A0B
:1016A000000000000D0A000008B500200090012194
:1016B0001020FFF725FA01210420FFF721FA40F658
:1016C000EF71F748FFF70FF84FF6FF71F548FFF796
:1016D0000AF8002241F63041F248FFF706F80022EE
:1016E00040F67D41EE48FFF700F841F63040ADF896
:1016F000000010208DF8030003208DF802006946D9
:10170000E848FEF741FF40F67D40ADF800001020AC
:101710008DF8030003208DF802006946E048FEF7CB
:1017200033FF0820ADF8000004208DF8030069465F
:10173000DB48FEF729FF4FF4C050ADF8000004204D
:101740008DF803006946D748FEF71EFF3020ADF83C
:10175000000010208DF8030003208DF80200694678
:10176000D048FEF711FF08BD08B500200090012108
:101770001020FFF7C5F901210420FFF7C1F940F659
:10178000FF71C748FEF7AFFF4FF6FF71C548FEF780
:10179000AAFF40F6FF70ADF8000010208DF803009E
:1017A00003208DF802006946BD48FEF7EDFE0820D3
:1017B000ADF8000004208DF803006946B848FEF734
:1017C000E3FE4FF6FF70ADF8000010208DF8030027
:1017D00003208DF802006946B248FEF7D5FE08BD29
:1017E00010B5044654B901224021AD48FEF77DFFF3
:1017F0000122D102AA48FEF778FF0BE0012C09D1A3
:1018000000224021A648FEF770FF0022E102A44812
:10181000FEF76BFF10BD38B50020009000241020AB
:101820008DF8030003208DF8020000BF0CE09E48F5
:1018300030F81400ADF800009C4951F824006946C6
:10184000FEF7A2FE601CC4B2102CF0D338BD38B530
:101850000020009004208DF8030003208DF8020082
:1018600000240CE0904830F81400ADF800008F49D7
:1018700051F824006946FEF787FE601CC4B2102CA4
:10188000F0D338BD10B500248648FEF719FF044692
:10189000204610BD10B5002220218148FEF725FF0B
:1018A0000120FFF7D5FB012220217D48FEF71DFF17
:1018B0001420FFF7CDFB10BD10B500221021784891
:1018C000FEF713FF0120FFF7C3FB0122102174482C
:1018D000FEF70BFF10BD10B5044675480470007884
:1018E000D8B1012802D0022822D10BE001224021E8
:1018F0006B48FEF7FAFE00224FF400616848FEF7DD
:10190000F4FE16E0002240216548FEF7EEFE0122BB
:10191000D1026348FEF7E9FE0BE001224021604856
:10192000FEF7E3FE0122D1025D48FEF7DEFE00E095
:1019300000BF00BF10BD2DE9F047804689464FF437
:1019400000444FF0000A00260027002500BF2EE0CB
:10195000002204215248FEF7C8FE4FF4805151483E
:10196000FEF7A5FE0546012D03D146EA040006B2A6
:1019700003E015B926EA040006B24FF400614948B5
:10198000FEF795FE0546012D03D147EA040007B294
:1019900003E015B927EA040007B26410012204210C
:1019A0003F48FEF7A2FE0AF101001FFA80FABAF1E1
:1019B000100FCDDBA8F80060A9F80070BDE8F08733
:1019C00070B504460D46012600BF08213448FEF7D5
:1019D0006EFE0646002EF8D1002201213048FEF7A7
:1019E00084FE0120FFF734FB32480078E0B9002282
:1019F00004212B48FEF779FEFFF744FF00B2208058
:101A0000012204212648FEF770FE0022042124480A
:101A1000FEF76BFEFFF736FF00B22880012204219B
:101A20001F48FEF762FE07E022480078012803D134
:101A300029462046FFF77FFF012211461848FEF78E
:101A400054FE70BD10B50446082C16D2DFE804F031
:101A5000041634455567788900224FF40071104808
:101A6000FEF743FE00224FF480710D48FEF73DFE65
:101A7000002280210A48FEF738FE82E0012251024E
:101A80000748FEF732FE00224FF480710448FEF74B
:101A90002CFE002280210248FEF727FE71E00000A4
:101AA00000080140001001407800002038000020AC
:101AB000340000203500002000224FF400718048DF
:101AC000FEF713FE012211027D48FEF70EFE0022F2
:101AD00080217B48FEF709FE53E00122510278483D
:101AE000FEF703FE012211027548FEF7FEFD0022FB
:101AF00080217348FEF7F9FD43E000224FF40071A6
:101B00006F48FEF7F2FD00224FF480716C48FEF73B
:101B1000ECFD012280216A48FEF7E7FD31E0012259
:101B200051026748FEF7E1FD00224FF480716448DE
:101B3000FEF7DBFD012280216148FEF7D6FD20E0A3
:101B400000224FF400715E48FEF7CFFD0122110222
:101B50005B48FEF7CAFD012280215948FEF7C5FD0A
:101B60000FE0012251025648FEF7BFFD012211028B
:101B70005348FEF7BAFD012280215148FEF7B5FD1A
:101B800000BF00BF10BD10B504464E48047054B9E4
:101B9000FFF7EAFDFFF75BFE00224FF48061484843
:101BA000FEF7A3FD08E0012C06D1FFF77DFD012221
:101BB00091024348FEF799FD012211464048FEF785
:101BC00094FD012204213E48FEF78FFD2046FFF7D9
:101BD00007FE10BD2DE9F04104464FF400450026F4
:101BE00000BF1BE005EA04072FB10122910236482D
:101BF000FEF77BFD05E000224FF480613248FEF7DE
:101C000074FD6D10002204212D48FEF76EFD0122A7
:101C100004212B48FEF769FD701CC6B2102EE1DBD3
:101C2000BDE8F08170B504460D464FF4004040EA2F
:101C30004420284386B2002201212148FEF755FDA9
:101C40003046FFF7C7FF012211461D48FEF74DFD44
:101C500070BD70B50446A00140EA041040EA84005B
:101C60002043C5B21948047029460420FFF7DAFF63
:101C700029460520FFF7D6FF29460620FFF7D2FFA9
:101C800029460720FFF7CEFF70BD70B5044644EA31
:101C90000410C5B229460320FFF7C4FF70BD10B57C
:101CA00004462CB9002210210748FEF71EFD06E06D
:101CB000012C04D1012210210348FEF716FD10BDAE
:101CC00000080140350000200010014034000020D1
:101CD000704700000FB4044910B503AA029800F041
:101CE00033FC10BC5DF814FB2C0000200FB41CB5B5
:101CF000074B06AA7B4469460090059800F0F5FB67
:101D00000020694600F004FC1CBC5DF814FB0000D8
:101D10001908000070B5044685690068C10601D540
:101D2000302600E02026C00707D070BDD4E901218D
:101D300030469047206A401C20626D1EF6D570BD6B
:101D400070B5044685690078C00707D170BDD4E935
:101D5000012120209047206A401C20626D1EF6D58C
:101D600070BD70B50C460546012A05D0287880065E
:101D700000D5EA69002302E0012305E05B1C9342E1
:101D800002D2E05C0028F9D1A869E618C01AA8615F
:101D9000286A184428622846FFF7BCFF04E0D5E90A
:101DA000012114F8010B9047B442F8D32846FFF7FD
:101DB000C7FF70BD2DE9F041064600241068752963
:101DC000314616A510D0AFF30080002802DA404259
:101DD00013A507E031688A0701D512A502E049077B
:101DE00004D511A5012401E0AFF3008000210A22EF
:101DF00006F1240709E0B0FBF2FCB0FBF2F302FBB2
:101E00001C00303078541846491C0028F3D1234672
:101E10002A463046BDE8F04100F0FBB80000000063
:101E20002D0000002B0000002000000070B50446CB
:101E30000D4621461068AFF300802188090502D5C0
:101E40000F4A7A4402E00E4A7A440E32002104F12D
:101E5000240305E000F00F060009965D5E54491C5E
:101E60000028F7D120780023000704D5702D02D078
:101E700009B1022311322046BDE8704000F0C9B814
:101E8000B61600002DE9F05F894604464FF0000ABF
:101E9000DFF824B1FB44C0F820A02046E168884761
:101EA00000287DD0252806D0D4E901219047206A5A
:101EB000401C2062F1E700255F462046E168884724
:101EC0002028064607DB312E05D2B81910F8200C61
:101ED00008B10543F1E7A80701D525F00405C4F8CA
:101EE0001CA00027C4F818A02A2E09D0304601F003
:101EF00078F838B304EB8708303EC8F8186019E06A
:101F000059F8041B204604EB87029161E168884779
:101F1000012F064618D1E069002820DA25F02005B7
:101F20001DE0D8F8180000EB800006EB40003038C8
:101F3000C8F818002046E1688847064601F051F8C5
:101F40000028EED1012F0AD02E2E08D12046E168BC
:101F500088477F1C0646022F45F02005C4DBA06998
:101F6000002803DA404245F00105A061E80701D0EE
:101F700025F01005A6B1A6F14100192802D8203697
:101F800045F400654A463146204625604D46FEF739
:101F9000E7F860B1012807D0ED1D25F0070000E04B
:101FA00007E000F1080978E705F1040975E7304614
:101FB0007AE7206ABDE8F09F8C1600004FF000021F
:101FC00000B5134694469646203922BFA0E80C502F
:101FD000A0E80C50B1F12001BFF4F7AF090728BF0A
:101FE000A0E80C5048BF0CC05DF804EB890028BF86
:101FF00040F8042B08BF704748BF20F8022B11F0AF
:10200000804F18BF00F8012B70477047704770472A
:1020100070472DE9F0470D4699469246044600F177
:1020200024080168880604D5E06921F010012160C8
:1020300000E00120A84201DD471B00E00027A16964
:102040007A1902EB0900081AA0612078C00602D4B0
:102050002046FFF75FFE002608E0D4E901211AF8C8
:1020600006009047206A401C761C20624E45F4DB37
:102070002078C0060AD52046FFF74CFE06E0D4E9DA
:10208000012130209047206A401C2062381EA7F1B1
:102090000107F4DC07E0D4E9012118F805009047B6
:1020A000206A401C2062281EA5F10105F3DC2046B1
:1020B000FFF746FE2078000602D50220BDE8F08733
:1020C0000120FBE770472DE9FF4F0C461E464FF0FD
:1020D000FF378BB0D2E90001DDF860800A908A46B4
:1020E000C1F30A5505B93D46002108464FF00000EE
:1020F000BAF1000F00F4400005DA00EB80004FF465
:10210000400101EA50004FEA9059B9F1010F00DD9A
:10211000B9460A9850EA4A000ED044F61050A5F28B
:10212000FF3545432F14B8F1000F1ED07542291E0C
:102130001EDDC9F100021CE0B8F1010F4FF00000F4
:1021400001D0302103E0F24305E02154401CB042AD
:10215000FBDB30460022002121540B99C1F8088096
:10216000C1E900200FB0BDE8F08FBD1B6D1CDEE79C
:102170004A4600DA694206A800F082FA06AB93E804
:10218000070003AB83E8070050460A9900F05AFBAA
:102190008DE80700A0F500501F3800900398002D2F
:1021A00009DD42F21F014A46084403A9039068462C
:1021B00000F0B9FD08E0A0F500504A461F3803A919
:1021C0000390684600F0C3FD8DE807000004000C92
:1021D00003D04FF0FF30410800E01046B8F1000F87
:1021E00003D00022009215461EE0751E05D400F0B3
:1021F000C1F9303262556D1EF9D5B346012208434C
:1022000002D000227F1C04E02078302801D1002277
:102210007F1E002A099786D01DE0112D07DA00F0F5
:10222000A9F9303262556D1C50EA0102F5D108431C
:1022300002D00098C8B10EE00021681E05E0235CC2
:10224000625C63542254401E491C8142F7DBAB465A
:10225000A81B401E0990002004F80B000B98099A57
:10226000C0F80880C0E9002B7CE711264FF0000879
:1022700059E72DE9F04F88460446D21D22F00701A8
:1022800091B0D1E90001CDE90A0100F096FE0246C5
:102290000B98C00F01D02D2007E02068810701D5E1
:1022A0002B2002E0202101EAC000032A099001D07E
:1022B000072A05DB03464146204600F0A1F90BE161
:1022C0002078800601D5E06900E00620B8F1650FAE
:1022D000814606D0B8F1660F18D0B8F1670F70D1FB
:1022E00031E00020B9F1110F009001DB112301E072
:1022F00009F101030AAA01A90CA8FFF7E4FEDDE930
:102300000C70002609F10105834647E001204B4689
:1023100000904FF000470AAA01A90CA8FFF7D3FECE
:10232000DDE90DB00C995D46002610B909F10100F8
:102330000D18B9EB050003D4C0F1FF3609F1010512
:10234000A5EB09002BE0B9F1010F01DA4FF001090B
:102350000020B9F1110F0090484601DD112300E083
:1023600003460AAA01A90CA8FFF7ADFEDDE90C702F
:102370004D4600268346207800070AD4AB4500DA94
:102380005D4601A8012D04DD411911F8011C302919
:1023900007D04F4502DA17F1040F04DA0120824614
:1023A0000FE06D1EEEE7002F02DCED1B3E4403E064
:1023B000781CA84200DD7D1CB81B00F1010A4FF01B
:1023C00000472078000703D4AA4501DB4FF0FF3A0D
:1023D0000021B7F1004F0DF143088DF8431024D0D0
:1023E00002202B23002F01DA7F422D230A21021E17
:1023F000A0F1010000DC5FB197FBF1FC97FBF1F26B
:1024000001FB1C7C17460CF1300C08F801CDEEE7FF
:10241000A8F1010003702188090501D5452100E0DC
:102420006521A0F1010800F8011C09980FA9A1EB92
:102430000807FF1D00B10120411901EBEA70A169F5
:102440003844081A401EA0612078C00602D42046F5
:10245000FFF760FC099828B1D4E901219047206A70
:10246000401C20622078C00622D52046FFF752FC8F
:102470001EE0002E04DBB34502DD01A8805D00E014
:102480003020D4E901219047206A401C2062761C4C
:10249000AAF101005FEA000A0AD100F067F8C068FB
:1024A0000168405CD4E901219047206A401C206209
:1024B000281EA5F10105DCDC07E0D4E9012118F8AC
:1024C000010B9047206A401C2062381EA7F10107CB
:1024D000F3DC2046FFF734FC032011B043E6000094
:1024E00001694A1C02610878704700B58FB0CDE9D8
:1024F00001310021059105497944CDE903101146C8
:102500006846FFF7BFFC0FB000BD0000E5FFFFFF0E
:102510000A6802F8010B0A60704710B5436913B1ED
:10252000AFF3008001E0FFF71CFC012010BD127822
:1025300000F124010A7000224A700122EDE71168BF
:102540004FF0FF32E9E70000074B70B50D467B44C2
:10255000FFF7CBFF0446284600F000F910B14FF01A
:10256000FF3070BD204670BD71EEFFFF0048704720
:10257000F800002030B5B0F10A024FEA900E71F178
:1025800000034EEA817EB0EB0E0061EB91014FEA51
:10259000101E4EEA017E10EB0E0041EB11114FEAC6
:1025A000102E4EEA016E10EB0E0041EB11214FEAA6
:1025B000104E4EEA014E10EB0E0041EB1141401857
:1025C00041F100014FEAD00040EA41704FEAD101E9
:1025D00010EB80054FEA810444EA907444EB010457
:1025E0006D1944EB0404521BA3414FF0000348BF94
:1025F0000A3200D530BD401C41F1000130BD000061
:102600002DE9F0411F46044603260168072A01F41C
:10261000006004DB08B116A505E016A503E008B1CB
:1026200015A500E015A521F010002060A069C01ECE
:10263000A0610FB1401EA0612046FFF76BFB4FB1B8
:10264000D4E9012138469047206A401C2062C01C12
:10265000206206E0206AFAE7D4E9012115F8010BAF
:102660009047761EF8D22046FFF76AFBBDE8F0815E
:102670004E414E006E616E00494E4600696E660026
:102680002DE9F047814616468AB0334878440DC894
:102690008DE80D0030487844801C03AC0DC884E8F8
:1026A0000D0041F69B300844372190FBF1F290FB7E
:1026B000F1F5A5F1800501FB12041B3C02D5644233
:1026C000012000E00020DFF890A080460027FA44B7
:1026D000AAF1BE0A0DE0E00709D03246684607EBD2
:1026E00047010AEB810100F032FB8DE8070064101E
:1026F0007F1C002CEFD1184F7F44AC3F18E0E80757
:1027000014D007EB04100DF1180A90E80E008AE8C7
:102710000E00C068F04201D198190890324606A90F
:1027200003A800F014FB03AB83E807006D10641CE2
:10273000002DE4D132466946B8F1000F03A802D05B
:1027400000F0F1FA01E000F002FBC9E90001C9F86C
:1027500008200AB0BDE8F087240F0000007B00F0DD
:102760008000704700487047D80000207546FFF78A
:10277000F9FFAE4605006946534620F0070085463E
:1027800018B020B5FDF720FEBDE820404FF0000650
:102790004FF000074FF000084FF0000B21F0070149
:1027A000AC46ACE8C009ACE8C009ACE8C009ACE88C
:1027B000C0098D4670470446AFF300802046FDF700
:1027C000F2FC00004FF0013C50F8042B51F8043BA0
:1027D0009A4221D1A2EB0C03934313EACC1317D1F5
:1027E00050F8042B51F8043B9A4215D1A2EB0C038C
:1027F000934313EACC130BD150F8042B51F8043B4C
:102800009A4209D1A2EB0C03934313EACC13DBD019
:102810004FF00000704700BFD01A01BAB1FA81F141
:1028200001F0180122FA01F0CB40C1F12001DBB226
:10283000C0B2C01A2CFA01F3D11A914311EAC311A4
:10284000E6D170475FEA400C08BF91F0000F4FEAF5
:102850008C234FEAC12243EA51514FEA1C5018BF62
:1028600000F5F0404FEA300018BF41F000415FEA48
:102870006C5C00F02980BCF1FF3F08BF40F0804055
:102880007047130C06BF12044FF0100C4FF0000CF1
:10289000130E04BF12020CF1080C130F04BF120137
:1028A0000CF1040C930F04BF92000CF1020CD30F37
:1028B00004BF52000CF1010C11464FF00002A0F1D0
:1028C0001F00A0EB0C00704711F0004F08BF7047CD
:1028D00031F000413FF4D5AF0B0C06BF09044FF0B7
:1028E000100C4FF0000C0B0E04BF09020CF1080C89
:1028F0000B0F04BF09010CF1040C8B0F04BF8900FE
:102900000CF1020CCB0F04BF49000CF1010CCCF10F
:102910002003A0EB0C0022FA03F302FA0CF241EAC6
:10292000030100F10100704720F07F4C80EA0300B2
:1029300023F07F47ACEB070303F57C5300F0004026
:1029400003F1FF032DE980494FEA154B09B44FEA23
:10295000144325EA0B4E24EA03480FF2042606EB43
:10296000132749083E785FEA320203FB0667C7F582
:10297000000707FB06F64FEA54374FEAD64606F142
:10298000020607FB066CCCF1005C4FEA1C472CEA00
:10299000074C07FB06F40CFB06F504EB15464FEA63
:1029A000961634BF00204FF000404FEAD13706FBA7
:1029B00007FC4FEA1C4C0CFB0BF7D21B03FB0CF77C
:1029C00061EB07010CFB0EF7B0EB074072EB17420F
:1029D0000CFB08F734BFA2EB0742B2EB074261EBF6
:1029E00017414FEA0C444FEA910706FB07FC4FEAF8
:1029F0001C4C0CFB0BF7B0EBC74072EB573203FBE0
:102A00000CF734BFA2EBC742B2EBC74261EB5731C0
:102A10000CFB0EF7B0EBC70072EB57720CFB08F71C
:102A200034BFA2EBC702B2EBC70261EB5771039F41
:102A30004FEA816141EA921104EBCC044FEAD137AD
:102A40004FEA826206FB07FC42EA90124FEA80607E
:102A50004FEA1C4C0CFB0BF7D21B03FB0CF761EB92
:102A600007010CFB0EF7B0EB074072EB17420CFBB3
:102A700008F734BFA2EB0742B2EB074261EB174104
:102A80004FEA8C554FEA910704EB9C2406FB07FCA8
:102A90004FEA1C4C0CFB0BF7B0EBC74072EB573204
:102AA00003FB0CF734BFA2EBC742B2EBC74261EBAA
:102AB00057310CFB0EF7B0EBC70072EB57720CFBF3
:102AC00008F734BFA2EBC702B2EBC70261EB577144
:102AD00015EB4C254FEA816141EA92114FEA82627F
:102AE0004FEAD13742EA901206FB07FC44F100049A
:102AF0004FEA80604FEA1C4C0CFB0BF7D21B03FB28
:102B00000CF761EB07010CFB0EF7B0EB074072EB23
:102B100017420CFB08F734BFA2EB0742B2EB0742A7
:102B200061EB174115EB1C154FEA813141EA9241E7
:102B30004FEA823242EA90424FEA80304FEA0C7606
:102B400044F1000448EA03434EEA0B484FF0000EFC
:102B5000B2EB080C71EB030724BF624639464EEB1B
:102B60000E0E4FF0000B0018524149414BEB0B0B7E
:102B7000B2EB080C71EB03077BF1000B24BF62463C
:102B800039464EEB0E0E4FF0000B001852414941F2
:102B90004BEB0B0BB2EB080C71EB03077BF1000B5B
:102BA00024BF624639464EEB0E0E51EA020718BFAB
:102BB00046F0010616EB0E7655F1000254F10001C5
:102BC00003D5BDE88901BDE80088BDE88901BDE8FD
:102BD0000048B619524141EB0101A3F101037047CE
:102BE00080807F7E7D7C7B7A79787776767574734A
:102BF000727171706F6E6E6D6C6C6B6A6A69686809
:102C0000676666656464636362616160605F5F5E9E
:102C10005E5D5D5C5C5B5B5A5A5959585857575614
:102C20005655555554545353525252515150505079
:102C30004F4F4F4E4E4D4D4D4C4C4C4B4B4B4A4ACB
:102C40004A4949494848484747474746464645450F
:102C50004544444444434343434242424241414148
:102C6000002B26D4770021D01CB54FEA370703B4D8
:102C70004FF010004FF010014FF000000FBCBDE806
:102C800010400BF1010BBBF1010F08BF5FEA170702
:102C900022BF12F1010211F101014FF0004143F195
:102CA000000300F0004043EA00007047F9D35708E2
:102CB000DAE746EA064613F1400F4FEA16461FDDF3
:102CC00013F1200FDFBF16430A46002120335B4279
:102CD000C8D0C3F1200746EA064602FA07F74FEAD2
:102CE000164646EA0706C3F1200722FA03F201FA64
:102CF00007F721FA03F14FF0000342EA0702B1E7B8
:102D000046EA020646EA06464FEA164646EA010643
:102D1000BCBF46EA0646360C4FF000034FF00002F7
:102D20004FF000019EE72DE9C048934630B491E88A
:102D3000380007C831EA400C48BF34EA430C03D5D9
:102D4000FFF7F2FDFFF78CFFF0BCBDE800882DE92E
:102D5000C048934630B491E8380007C810F0804F5F
:102D600008BF13F0804F03D100F005F8FFF778FF9C
:102D7000F0BCBDE8008820F07F4780EA030023F024
:102D80007F4C07EB0C03A3F57C5300F00040A3F14C
:102D9000FE0392F0000F00F0B38095F0000F00F0FA
:102DA00077802DE901494FEA11404FEA144621EAA4
:102DB000004800FB06FC24EA064708FB06F607FB72
:102DC00008F800FB07F718EB06484CEB164C4FEAE7
:102DD000124B18EB07484FEA15464CEB174022EA16
:102DE0000B4E0BFB06FC25EA06470EFB06F607FB1F
:102DF0000EFE0BFB07F71EEB064E4CEB164C4FF08E
:102E000000061EEB074E4CEB174B18EB0B0840F17E
:102E1000000018EB0E0B58EB000840F100008F1A71
:102E20004FF000013CBFC943661B14BFB5EB040C57
:102E300000213CBFC943F61B4FEA17444EEA8E0EF1
:102E400027EA04454FEA1C4704FB07622CEA074CBB
:102E500005FB07F70CFB05F604FB0CFC16EB07461D
:102E600042EB174216EB0C4642EB1C421BEB0606EC
:102E700058EB0202414146EA9E0601D5BDE80189B0
:102E8000B619524141EB0101A3F10103BDE80189EB
:102E90004FEA14454FEA114724EA054621EA074C58
:102EA00005FB07F406FB07F70CFB06F105FB0CFC22
:102EB00011EB074144EB17444FEA124711EB0C4169
:102EC00044EB1C4422EA074C05FB07F206FB07F71C
:102ED0000CFB06F605FB0CFC16EB074642EB174213
:102EE00016EB0C4642EB1C456A1854F1000148BF32
:102EF0007047B619524141EB0101A3F1010370473C
:102F000095F0000F37D04FEA11424FEA144721EAFB
:102F1000024624EA074C02FB07F106FB07F70CFB0D
:102F200006F402FB0CFC14EB074441EB17414FEA9B
:102F3000154714EB0C4441EB1C4125EA074C02FBFE
:102F400007F506FB07F70CFB06F602FB0CFC16EB7D
:102F5000074645EB174516EB0C4645EB1C4212198C
:102F600051F1000148BF7047B619524141EB0101D0
:102F7000A3F1010370474FEA14454FEA114724EAD1
:102F8000054621EA074C05FB07F106FB07F70CFB9A
:102F900006F24FF0000605FB0CFC12EB074241EB7A
:102FA000174112EB0C4251EB1C4148BF704792187D
:102FB00041EB0101A3F101037047490050EAC12030
:102FC00018BF04204A0D18BF40F0010040F2FF7204
:102FD000B2EB515F08BF40F00200012808BF052096
:102FE000704730380A2801D201207047002070470E
:102FF00010B500290AD00878002807D00548784481
:10300000FFF7E0FB002801D0002010BD0248784403
:1030100010BD0000EE050000E60500002DE9C041EE
:1030200030B4DFF8A0C23CEA111418BF3CEA131414
:1030300000F0EC8081EA03051CEA111444EAD5741F
:1030400018BF1CEA131500F0C780A4EB05044FF06D
:10305000004545EAC12145EAC32341EA505143EA0C
:10306000525304F17F74994204F500344FEAC020B2
:103070004FEAC22208BF904200F09C804FEA1365DD
:103080000FF24016765D4FEA134506FB05F7C7F1D0
:10309000807706FB07F74FEAD737A7FB036876422E
:1030A000C8F58038A7FB06CE38BFA8F1010807FB9A
:1030B00008E64FF0000EA6FB028CE6FB03CEDCF127
:1030C000000CCEF1004E38BFAEF1010EA6FB0C583D
:1030D0004FF000074FF00005E6FB0E87A1FB08C686
:1030E000A0FB07CE16EB0E0645F10005E1FB0765D8
:1030F00015F1E04E7EBFA4F580345FEA46066D41CF
:1031000016F1800745F100054FEA17274FEA0666DA
:1031100047EA0567A6F1DE46B6F1805F4FEA15255E
:103120001FD9384624F0010C05EBC471BCF1FE6FC9
:1031300001EB0C1102D8F0BCBDE8008124425CBF59
:1031400001F5801E9EEAC47F02D4F0BCBDE8008178
:10315000244238D4F0BCA1F1C041BDE8004100F0E8
:10316000C5B94FEAD22242EA43524FEAD323A7FB22
:1031700002864FEAD02040EA415007FB03661EEA70
:103180000E0F4FEAD12105FB026658BFA6EB005691
:10319000B6EB00564FEA520E4EEAC37E18EB0E0E07
:1031A00056EB530EBDD518EB02085E417F1C55F15E
:1031B0000005B6E74FF480154FF000074FF000060A
:1031C0004FF00008ADE7F0BC4FF0000001F1C04146
:1031D00001F00041BDE8008111EA0C1F0CEA131553
:1031E00000D00CE013EA0C1F00F025804FF0000027
:1031F000F0BC81EA030101F00041BDE80081F0BCB0
:10320000BDE8004181EA030100F070B9F0BCBDE8FF
:10321000004170B500F01CF9097EFC3E00F007B8D3
:1032200081EA03014FF0000001F00041704781EA9C
:10323000030100F05BB9F0BCBDE800414FF00000B5
:1032400021497047FFFDFBF9F7F5F4F2F0EEEDEBE5
:10325000E9E8E6E4E3E1E0DEDDDBDAD8D7D5D4D394
:10326000D1D0CFCDCCCBCAC8C7C6C5C4C2C1C0BFE0
:10327000BEBDBCBBBAB9B8B7B6B5B4B3B2B1B0AFE6
:10328000AEADACABAAA9A8A8A7A6A5A4A3A3A2A1CA
:10329000A09F9F9E9D9C9C9B9A9999989797969585
:1032A00095949393929191908F8F8E8E8D8C8C8B21
:1032B0008B8A8989888887878685858484838382A9
:1032C000828181800000FF070000F87F10F000423B
:1032D00048BF4042B0FA80F310FA03F10AD0C3F1BC
:1032E0001D0303F580634FEA415002EB035202EBEA
:1032F000D12170474FF0000070470000DFF848C14F
:1033000070B51CEA111E1EBF1CEA13159EEA0C0FB5
:1033100095EA0C0F00F06F8081EA030423EA4C1356
:103320004EEAD47E21EA4C1141F4801143F480131B
:10333000AE44A1FB024CA0FB0365AEF17F7E3619C3
:1033400055EB0C05A1FB034C4CF10003A0FB021C48
:1033500016EB0C06654153F10003094218BF46F015
:10336000010613F4007F0BD14FEA03314FEA053019
:10337000340341EA155140EA16506FF003020AE0A7
:103380004FEAC3214FEAC520F40241EA555140EA11
:1033900056506FF0020202EB2E4201EB025585EA15
:1033A000CE710AD05FEA440C18BF24F0004450F1FB
:1033B000000041F1000120EAD47040F2FE7C624539
:1033C00000D270BDA84214BF4FF080444FF040447B
:1033D000002E08BF0024BEF1806FA8BFA1F1C0413C
:1033E000BDE8704080F282804FF0000001F1C041E2
:1033F00001F0004170479EEA0C0F0CEA131518BF4C
:1034000095EA0C0F06D04FF0000081EA030E0EF093
:10341000004170BD00F01CF88900013E00F007B8C3
:1034200000F009B84FEA430C5FEA5C5C08D081EA1F
:10343000030100F05BB84FEA410C5FEA5C5CF6D137
:103440004FF00000014970470000FF070000F87FBF
:103450000EF1020E2EF0030E5EF8046B364205D418
:10346000012A43EB030515F5001F12D8012841EB93
:10347000010C1CF5001F0CD80ED14FEAD17C15F5BC
:10348000001F0CEB4C0C0CF1020C08BF4CEBD37C76
:1034900004E04FF0080C01E04FEAD37C0CEB4C0544
:1034A00026FA05F606F00706B6F1040C06D20EEB76
:1034B000860CBDE870404CF0010C6047DFE80CF072
:1034C000090B02024FF000414FF00000A1F500216E
:1034D00070BD19461046012851EB010418BFD4F500
:1034E000001484BF002001F0004170BD0808A0F561
:1034F00000114FEA31017047FEF7BBBE3031323365
:103500003435363738394142434445464030580017
:103510003031323334353637383961626364656649
:1035200040307800040000080000000000000002A5
:10353000000100001000000002400000000000A098
:103540000000000005400000000000C8000000006E
:103550000C4000000000409C0000000019400000EA
:103560000020BCBE0000000034400000BFC91B8E1C
:1035700000000004B5400000504BCFD06607E2CFFA
:10358000010000006C4100003E8251AADFEEA7342A
:1035900001000000D9420000DCB5A0E23A301F97DC
:1035A000FFFFFFFFB4450000FD25A0C8E9A3C14F00
:1035B000FFFFFFFFFF3F0000000000800000000051
:1035C000FF3F0000000000800000000008360008F7
:1035D000000000209800000028010008A036000824
:1035E00098000020A0060000440100081C00000014
:1035F00043000000F8FFFFFF0C0000000E00000079
:103600000F0000002E00000000A24A04000000008D
:103610000000000001020304060708090000000082
:103620000102030401020304060708090204060854
:10363000000000000000000000000000000000008A
:103640000010014000100140001001400010014036
:103650000010014000100140001001400010014026
:103660000010014000100140001001400010014016
:103670000010014000100140001001400010014006
:10368000010002000400080010002000400080003B
:10369000000100020004000800100020004000802B
:04000005080000ED02
:00000001FF
